{
  "_format": "hh-sol-artifact-1",
  "contractName": "Marketplace",
  "sourceName": "contracts/Marketplace.sol",
  "abi": [
    {
      "inputs": [],
      "stateMutability": "nonpayable",
      "type": "constructor"
    },
    {
      "inputs": [
        {
          "internalType": "address",
          "name": "owner",
          "type": "address"
        }
      ],
      "name": "OwnableInvalidOwner",
      "type": "error"
    },
    {
      "inputs": [
        {
          "internalType": "address",
          "name": "account",
          "type": "address"
        }
      ],
      "name": "OwnableUnauthorizedAccount",
      "type": "error"
    },
    {
      "anonymous": false,
      "inputs": [
        {
          "indexed": true,
          "internalType": "uint256",
          "name": "orderId",
          "type": "uint256"
        },
        {
          "indexed": true,
          "internalType": "uint256",
          "name": "productId",
          "type": "uint256"
        },
        {
          "indexed": true,
          "internalType": "address",
          "name": "buyer",
          "type": "address"
        },
        {
          "indexed": false,
          "internalType": "uint256",
          "name": "amount",
          "type": "uint256"
        }
      ],
      "name": "OrderCreated",
      "type": "event"
    },
    {
      "anonymous": false,
      "inputs": [
        {
          "indexed": true,
          "internalType": "address",
          "name": "previousOwner",
          "type": "address"
        },
        {
          "indexed": true,
          "internalType": "address",
          "name": "newOwner",
          "type": "address"
        }
      ],
      "name": "OwnershipTransferred",
      "type": "event"
    },
    {
      "anonymous": false,
      "inputs": [
        {
          "indexed": true,
          "internalType": "uint256",
          "name": "productId",
          "type": "uint256"
        },
        {
          "indexed": false,
          "internalType": "string",
          "name": "name",
          "type": "string"
        },
        {
          "indexed": false,
          "internalType": "uint256",
          "name": "price",
          "type": "uint256"
        },
        {
          "indexed": true,
          "internalType": "address",
          "name": "seller",
          "type": "address"
        }
      ],
      "name": "ProductListed",
      "type": "event"
    },
    {
      "anonymous": false,
      "inputs": [
        {
          "indexed": true,
          "internalType": "uint256",
          "name": "productId",
          "type": "uint256"
        },
        {
          "indexed": true,
          "internalType": "address",
          "name": "buyer",
          "type": "address"
        },
        {
          "indexed": false,
          "internalType": "uint256",
          "name": "amount",
          "type": "uint256"
        }
      ],
      "name": "ProductSold",
      "type": "event"
    },
    {
      "anonymous": false,
      "inputs": [
        {
          "indexed": true,
          "internalType": "address",
          "name": "to",
          "type": "address"
        },
        {
          "indexed": false,
          "internalType": "uint256",
          "name": "amount",
          "type": "uint256"
        }
      ],
      "name": "Withdrawal",
      "type": "event"
    },
    {
      "inputs": [
        {
          "internalType": "uint256",
          "name": "productId",
          "type": "uint256"
        }
      ],
      "name": "buyProduct",
      "outputs": [],
      "stateMutability": "payable",
      "type": "function"
    },
    {
      "inputs": [
        {
          "internalType": "uint256",
          "name": "orderId",
          "type": "uint256"
        }
      ],
      "name": "getOrder",
      "outputs": [
        {
          "components": [
            {
              "internalType": "uint256",
              "name": "id",
              "type": "uint256"
            },
            {
              "internalType": "uint256",
              "name": "productId",
              "type": "uint256"
            },
            {
              "internalType": "address",
              "name": "buyer",
              "type": "address"
            },
            {
              "internalType": "uint256",
              "name": "amount",
              "type": "uint256"
            },
            {
              "internalType": "uint256",
              "name": "timestamp",
              "type": "uint256"
            }
          ],
          "internalType": "struct Marketplace.Order",
          "name": "",
          "type": "tuple"
        }
      ],
      "stateMutability": "view",
      "type": "function"
    },
    {
      "inputs": [],
      "name": "getOrderCount",
      "outputs": [
        {
          "internalType": "uint256",
          "name": "",
          "type": "uint256"
        }
      ],
      "stateMutability": "view",
      "type": "function"
    },
    {
      "inputs": [
        {
          "internalType": "uint256",
          "name": "productId",
          "type": "uint256"
        }
      ],
      "name": "getProduct",
      "outputs": [
        {
          "components": [
            {
              "internalType": "uint256",
              "name": "id",
              "type": "uint256"
            },
            {
              "internalType": "string",
              "name": "name",
              "type": "string"
            },
            {
              "internalType": "string",
              "name": "description",
              "type": "string"
            },
            {
              "internalType": "uint256",
              "name": "price",
              "type": "uint256"
            },
            {
              "internalType": "address payable",
              "name": "seller",
              "type": "address"
            },
            {
              "internalType": "bool",
              "name": "sold",
              "type": "bool"
            }
          ],
          "internalType": "struct Marketplace.Product",
          "name": "",
          "type": "tuple"
        }
      ],
      "stateMutability": "view",
      "type": "function"
    },
    {
      "inputs": [],
      "name": "getProductCount",
      "outputs": [
        {
          "internalType": "uint256",
          "name": "",
          "type": "uint256"
        }
      ],
      "stateMutability": "view",
      "type": "function"
    },
    {
      "inputs": [
        {
          "internalType": "string",
          "name": "name",
          "type": "string"
        },
        {
          "internalType": "string",
          "name": "description",
          "type": "string"
        },
        {
          "internalType": "uint256",
          "name": "price",
          "type": "uint256"
        }
      ],
      "name": "listProduct",
      "outputs": [],
      "stateMutability": "nonpayable",
      "type": "function"
    },
    {
      "inputs": [
        {
          "internalType": "uint256",
          "name": "",
          "type": "uint256"
        }
      ],
      "name": "orders",
      "outputs": [
        {
          "internalType": "uint256",
          "name": "id",
          "type": "uint256"
        },
        {
          "internalType": "uint256",
          "name": "productId",
          "type": "uint256"
        },
        {
          "internalType": "address",
          "name": "buyer",
          "type": "address"
        },
        {
          "internalType": "uint256",
          "name": "amount",
          "type": "uint256"
        },
        {
          "internalType": "uint256",
          "name": "timestamp",
          "type": "uint256"
        }
      ],
      "stateMutability": "view",
      "type": "function"
    },
    {
      "inputs": [],
      "name": "owner",
      "outputs": [
        {
          "internalType": "address",
          "name": "",
          "type": "address"
        }
      ],
      "stateMutability": "view",
      "type": "function"
    },
    {
      "inputs": [
        {
          "internalType": "uint256",
          "name": "",
          "type": "uint256"
        }
      ],
      "name": "products",
      "outputs": [
        {
          "internalType": "uint256",
          "name": "id",
          "type": "uint256"
        },
        {
          "internalType": "string",
          "name": "name",
          "type": "string"
        },
        {
          "internalType": "string",
          "name": "description",
          "type": "string"
        },
        {
          "internalType": "uint256",
          "name": "price",
          "type": "uint256"
        },
        {
          "internalType": "address payable",
          "name": "seller",
          "type": "address"
        },
        {
          "internalType": "bool",
          "name": "sold",
          "type": "bool"
        }
      ],
      "stateMutability": "view",
      "type": "function"
    },
    {
      "inputs": [],
      "name": "renounceOwnership",
      "outputs": [],
      "stateMutability": "nonpayable",
      "type": "function"
    },
    {
      "inputs": [
        {
          "internalType": "address",
          "name": "newOwner",
          "type": "address"
        }
      ],
      "name": "transferOwnership",
      "outputs": [],
      "stateMutability": "nonpayable",
      "type": "function"
    },
    {
      "inputs": [
        {
          "internalType": "address payable",
          "name": "to",
          "type": "address"
        }
      ],
      "name": "withdraw",
      "outputs": [],
      "stateMutability": "nonpayable",
      "type": "function"
    }
  ],
  "bytecode": "0x608060405234801561001057600080fd5b5033600073ffffffffffffffffffffffffffffffffffffffff168173ffffffffffffffffffffffffffffffffffffffff16036100845760006040517f1e4fbdf700000000000000000000000000000000000000000000000000000000815260040161007b919061019e565b60405180910390fd5b6100938161009960201b60201c565b506101b9565b60008060009054906101000a900473ffffffffffffffffffffffffffffffffffffffff169050816000806101000a81548173ffffffffffffffffffffffffffffffffffffffff021916908373ffffffffffffffffffffffffffffffffffffffff1602179055508173ffffffffffffffffffffffffffffffffffffffff168173ffffffffffffffffffffffffffffffffffffffff167f8be0079c531659141344cd1fd0a4f28419497f9722a3daafe3b4186f6b6457e060405160405180910390a35050565b600073ffffffffffffffffffffffffffffffffffffffff82169050919050565b60006101888261015d565b9050919050565b6101988161017d565b82525050565b60006020820190506101b3600083018461018f565b92915050565b611dcd806101c86000396000f3fe6080604052600436106100a75760003560e01c80638d0a5fbb116100645780638d0a5fbb1461019e5780638da5cb5b146101c9578063a85c38ef146101f4578063b9db15b414610235578063d09ef24114610272578063f2fde38b146102af576100a7565b80634a348da9146100ac57806351cff8d9146100d75780636d6b777714610100578063715018a6146101295780637acc0b20146101405780638642269e14610182575b600080fd5b3480156100b857600080fd5b506100c16102d8565b6040516100ce9190611125565b60405180910390f35b3480156100e357600080fd5b506100fe60048036038101906100f991906111b2565b6102e9565b005b34801561010c57600080fd5b5061012760048036038101906101229190611351565b610438565b005b34801561013557600080fd5b5061013e6105aa565b005b34801561014c57600080fd5b50610167600480360381019061016291906113dc565b6105be565b604051610179969594939291906114b2565b60405180910390f35b61019c600480360381019061019791906113dc565b610737565b005b3480156101aa57600080fd5b506101b3610b6b565b6040516101c09190611125565b60405180910390f35b3480156101d557600080fd5b506101de610b7c565b6040516101eb9190611542565b60405180910390f35b34801561020057600080fd5b5061021b600480360381019061021691906113dc565b610ba5565b60405161022c95949392919061155d565b60405180910390f35b34801561024157600080fd5b5061025c600480360381019061025791906113dc565b610bfb565b60405161026991906116b7565b60405180910390f35b34801561027e57600080fd5b50610299600480360381019061029491906113dc565b610dd1565b6040516102a69190611750565b60405180910390f35b3480156102bb57600080fd5b506102d660048036038101906102d19190611797565b610e7c565b005b60006102e46003610f02565b905090565b6102f1610f10565b600047905060008111610339576040517f08c379a000000000000000000000000000000000000000000000000000000000815260040161033090611810565b60405180910390fd5b60008273ffffffffffffffffffffffffffffffffffffffff168260405161035f90611861565b60006040518083038185875af1925050503d806000811461039c576040519150601f19603f3d011682016040523d82523d6000602084013e6103a1565b606091505b50509050806103e5576040517f08c379a00000000000000000000000000000000000000000000000000000000081526004016103dc906118c2565b60405180910390fd5b8273ffffffffffffffffffffffffffffffffffffffff167f7fcf532c15f0a6db0bd6d0e038bea71d30d808c7d98cb3bf7268a95bf5081b658360405161042b9190611125565b60405180910390a2505050565b6104426003610f97565b600061044e6003610f02565b90506040518060c001604052808281526020018581526020018481526020018381526020013373ffffffffffffffffffffffffffffffffffffffff16815260200160001515815250600160008381526020019081526020016000206000820151816000015560208201518160010190816104c89190611aee565b5060408201518160020190816104de9190611aee565b506060820151816003015560808201518160040160006101000a81548173ffffffffffffffffffffffffffffffffffffffff021916908373ffffffffffffffffffffffffffffffffffffffff16021790555060a08201518160040160146101000a81548160ff0219169083151502179055509050503373ffffffffffffffffffffffffffffffffffffffff16817f12f74df6387ef2d51265f7b8c12c28c83ba3a6a78ad217f3846ec9c2b1fad92f868560405161059c929190611bc0565b60405180910390a350505050565b6105b2610f10565b6105bc6000610fad565b565b60016020528060005260406000206000915090508060000154908060010180546105e790611911565b80601f016020809104026020016040519081016040528092919081815260200182805461061390611911565b80156106605780601f1061063557610100808354040283529160200191610660565b820191906000526020600020905b81548152906001019060200180831161064357829003601f168201915b50505050509080600201805461067590611911565b80601f01602080910402602001604051908101604052809291908181526020018280546106a190611911565b80156106ee5780601f106106c3576101008083540402835291602001916106ee565b820191906000526020600020905b8154815290600101906020018083116106d157829003601f168201915b5050505050908060030154908060040160009054906101000a900473ffffffffffffffffffffffffffffffffffffffff16908060040160149054906101000a900460ff16905086565b600073ffffffffffffffffffffffffffffffffffffffff166001600083815260200190815260200160002060040160009054906101000a900473ffffffffffffffffffffffffffffffffffffffff1673ffffffffffffffffffffffffffffffffffffffff16036107dc576040517f08c379a00000000000000000000000000000000000000000000000000000000081526004016107d390611c3c565b60405180910390fd5b6001600082815260200190815260200160002060040160149054906101000a900460ff1615610840576040517f08c379a000000000000000000000000000000000000000000000000000000000815260040161083790611ca8565b60405180910390fd5b6000600160008381526020019081526020016000209050600081600301549050803410156108a3576040517f08c379a000000000000000000000000000000000000000000000000000000000815260040161089a90611d14565b60405180910390fd5b60018260040160146101000a81548160ff0219169083151502179055506108ca6004610f97565b60006108d66004610f02565b90506040518060a001604052808281526020018581526020013373ffffffffffffffffffffffffffffffffffffffff1681526020018381526020014281525060026000838152602001908152602001600020600082015181600001556020820151816001015560408201518160020160006101000a81548173ffffffffffffffffffffffffffffffffffffffff021916908373ffffffffffffffffffffffffffffffffffffffff160217905550606082015181600301556080820151816004015590505060008360040160009054906101000a900473ffffffffffffffffffffffffffffffffffffffff1673ffffffffffffffffffffffffffffffffffffffff16836040516109e490611861565b60006040518083038185875af1925050503d8060008114610a21576040519150601f19603f3d011682016040523d82523d6000602084013e610a26565b606091505b5050905080610a6a576040517f08c379a0000000000000000000000000000000000000000000000000000000008152600401610a61906118c2565b60405180910390fd5b82341115610ac5573373ffffffffffffffffffffffffffffffffffffffff166108fc8434610a989190611d63565b9081150290604051600060405180830381858888f19350505050158015610ac3573d6000803e3d6000fd5b505b3373ffffffffffffffffffffffffffffffffffffffff16857f31bb31d00bedecd9cb0a6f27507b6f5b268f069f24168aa35ae70c21c2e8d5ca85604051610b0c9190611125565b60405180910390a33373ffffffffffffffffffffffffffffffffffffffff1685837fab45dcf8e0b46d291b98e53c6f1c6774dc32e2436543291f7bfbb3e3c48b2f9f86604051610b5c9190611125565b60405180910390a45050505050565b6000610b776004610f02565b905090565b60008060009054906101000a900473ffffffffffffffffffffffffffffffffffffffff16905090565b60026020528060005260406000206000915090508060000154908060010154908060020160009054906101000a900473ffffffffffffffffffffffffffffffffffffffff16908060030154908060040154905085565b610c03611079565b600160008381526020019081526020016000206040518060c001604052908160008201548152602001600182018054610c3b90611911565b80601f0160208091040260200160405190810160405280929190818152602001828054610c6790611911565b8015610cb45780601f10610c8957610100808354040283529160200191610cb4565b820191906000526020600020905b815481529060010190602001808311610c9757829003601f168201915b50505050508152602001600282018054610ccd90611911565b80601f0160208091040260200160405190810160405280929190818152602001828054610cf990611911565b8015610d465780601f10610d1b57610100808354040283529160200191610d46565b820191906000526020600020905b815481529060010190602001808311610d2957829003601f168201915b50505050508152602001600382015481526020016004820160009054906101000a900473ffffffffffffffffffffffffffffffffffffffff1673ffffffffffffffffffffffffffffffffffffffff1673ffffffffffffffffffffffffffffffffffffffff1681526020016004820160149054906101000a900460ff1615151515815250509050919050565b610dd96110c7565b600260008381526020019081526020016000206040518060a001604052908160008201548152602001600182015481526020016002820160009054906101000a900473ffffffffffffffffffffffffffffffffffffffff1673ffffffffffffffffffffffffffffffffffffffff1673ffffffffffffffffffffffffffffffffffffffff168152602001600382015481526020016004820154815250509050919050565b610e84610f10565b600073ffffffffffffffffffffffffffffffffffffffff168173ffffffffffffffffffffffffffffffffffffffff1603610ef65760006040517f1e4fbdf7000000000000000000000000000000000000000000000000000000008152600401610eed9190611542565b60405180910390fd5b610eff81610fad565b50565b600081600001549050919050565b610f18611071565b73ffffffffffffffffffffffffffffffffffffffff16610f36610b7c565b73ffffffffffffffffffffffffffffffffffffffff1614610f9557610f59611071565b6040517f118cdaa7000000000000000000000000000000000000000000000000000000008152600401610f8c9190611542565b60405180910390fd5b565b6001816000016000828254019250508190555050565b60008060009054906101000a900473ffffffffffffffffffffffffffffffffffffffff169050816000806101000a81548173ffffffffffffffffffffffffffffffffffffffff021916908373ffffffffffffffffffffffffffffffffffffffff1602179055508173ffffffffffffffffffffffffffffffffffffffff168173ffffffffffffffffffffffffffffffffffffffff167f8be0079c531659141344cd1fd0a4f28419497f9722a3daafe3b4186f6b6457e060405160405180910390a35050565b600033905090565b6040518060c0016040528060008152602001606081526020016060815260200160008152602001600073ffffffffffffffffffffffffffffffffffffffff1681526020016000151581525090565b6040518060a001604052806000815260200160008152602001600073ffffffffffffffffffffffffffffffffffffffff16815260200160008152602001600081525090565b6000819050919050565b61111f8161110c565b82525050565b600060208201905061113a6000830184611116565b92915050565b6000604051905090565b600080fd5b600080fd5b600073ffffffffffffffffffffffffffffffffffffffff82169050919050565b600061117f82611154565b9050919050565b61118f81611174565b811461119a57600080fd5b50565b6000813590506111ac81611186565b92915050565b6000602082840312156111c8576111c761114a565b5b60006111d68482850161119d565b91505092915050565b600080fd5b600080fd5b6000601f19601f8301169050919050565b7f4e487b7100000000000000000000000000000000000000000000000000000000600052604160045260246000fd5b611232826111e9565b810181811067ffffffffffffffff82111715611251576112506111fa565b5b80604052505050565b6000611264611140565b90506112708282611229565b919050565b600067ffffffffffffffff8211156112905761128f6111fa565b5b611299826111e9565b9050602081019050919050565b82818337600083830152505050565b60006112c86112c384611275565b61125a565b9050828152602081018484840111156112e4576112e36111e4565b5b6112ef8482856112a6565b509392505050565b600082601f83011261130c5761130b6111df565b5b813561131c8482602086016112b5565b91505092915050565b61132e8161110c565b811461133957600080fd5b50565b60008135905061134b81611325565b92915050565b60008060006060848603121561136a5761136961114a565b5b600084013567ffffffffffffffff8111156113885761138761114f565b5b611394868287016112f7565b935050602084013567ffffffffffffffff8111156113b5576113b461114f565b5b6113c1868287016112f7565b92505060406113d28682870161133c565b9150509250925092565b6000602082840312156113f2576113f161114a565b5b60006114008482850161133c565b91505092915050565b600081519050919050565b600082825260208201905092915050565b60005b83811015611443578082015181840152602081019050611428565b60008484015250505050565b600061145a82611409565b6114648185611414565b9350611474818560208601611425565b61147d816111e9565b840191505092915050565b61149181611174565b82525050565b60008115159050919050565b6114ac81611497565b82525050565b600060c0820190506114c76000830189611116565b81810360208301526114d9818861144f565b905081810360408301526114ed818761144f565b90506114fc6060830186611116565b6115096080830185611488565b61151660a08301846114a3565b979650505050505050565b600061152c82611154565b9050919050565b61153c81611521565b82525050565b60006020820190506115576000830184611533565b92915050565b600060a0820190506115726000830188611116565b61157f6020830187611116565b61158c6040830186611533565b6115996060830185611116565b6115a66080830184611116565b9695505050505050565b6115b98161110c565b82525050565b600082825260208201905092915050565b60006115db82611409565b6115e581856115bf565b93506115f5818560208601611425565b6115fe816111e9565b840191505092915050565b61161281611174565b82525050565b61162181611497565b82525050565b600060c08301600083015161163f60008601826115b0565b506020830151848203602086015261165782826115d0565b9150506040830151848203604086015261167182826115d0565b915050606083015161168660608601826115b0565b5060808301516116996080860182611609565b5060a08301516116ac60a0860182611618565b508091505092915050565b600060208201905081810360008301526116d18184611627565b905092915050565b6116e281611521565b82525050565b60a0820160008201516116fe60008501826115b0565b50602082015161171160208501826115b0565b50604082015161172460408501826116d9565b50606082015161173760608501826115b0565b50608082015161174a60808501826115b0565b50505050565b600060a08201905061176560008301846116e8565b92915050565b61177481611521565b811461177f57600080fd5b50565b6000813590506117918161176b565b92915050565b6000602082840312156117ad576117ac61114a565b5b60006117bb84828501611782565b91505092915050565b7f4e6f2062616c616e636520746f20776974686472617700000000000000000000600082015250565b60006117fa601683611414565b9150611805826117c4565b602082019050919050565b60006020820190508181036000830152611829816117ed565b9050919050565b600081905092915050565b50565b600061184b600083611830565b91506118568261183b565b600082019050919050565b600061186c8261183e565b9150819050919050565b7f5472616e73666572206661696c65640000000000000000000000000000000000600082015250565b60006118ac600f83611414565b91506118b782611876565b602082019050919050565b600060208201905081810360008301526118db8161189f565b9050919050565b7f4e487b7100000000000000000000000000000000000000000000000000000000600052602260045260246000fd5b6000600282049050600182168061192957607f821691505b60208210810361193c5761193b6118e2565b5b50919050565b60008190508160005260206000209050919050565b60006020601f8301049050919050565b600082821b905092915050565b6000600883026119a47fffffffffffffffffffffffffffffffffffffffffffffffffffffffffffffffff82611967565b6119ae8683611967565b95508019841693508086168417925050509392505050565b6000819050919050565b60006119eb6119e66119e18461110c565b6119c6565b61110c565b9050919050565b6000819050919050565b611a05836119d0565b611a19611a11826119f2565b848454611974565b825550505050565b600090565b611a2e611a21565b611a398184846119fc565b505050565b5b81811015611a5d57611a52600082611a26565b600181019050611a3f565b5050565b601f821115611aa257611a7381611942565b611a7c84611957565b81016020851015611a8b578190505b611a9f611a9785611957565b830182611a3e565b50505b505050565b600082821c905092915050565b6000611ac560001984600802611aa7565b1980831691505092915050565b6000611ade8383611ab4565b9150826002028217905092915050565b611af782611409565b67ffffffffffffffff811115611b1057611b0f6111fa565b5b611b1a8254611911565b611b25828285611a61565b600060209050601f831160018114611b585760008415611b46578287015190505b611b508582611ad2565b865550611bb8565b601f198416611b6686611942565b60005b82811015611b8e57848901518255600182019150602085019450602081019050611b69565b86831015611bab5784890151611ba7601f891682611ab4565b8355505b6001600288020188555050505b505050505050565b60006040820190508181036000830152611bda818561144f565b9050611be96020830184611116565b9392505050565b7f50726f6475637420646f6573206e6f7420657869737400000000000000000000600082015250565b6000611c26601683611414565b9150611c3182611bf0565b602082019050919050565b60006020820190508181036000830152611c5581611c19565b9050919050565b7f50726f6475637420697320616c726561647920736f6c64000000000000000000600082015250565b6000611c92601783611414565b9150611c9d82611c5c565b602082019050919050565b60006020820190508181036000830152611cc181611c85565b9050919050565b7f496e73756666696369656e742045746865722073656e74000000000000000000600082015250565b6000611cfe601783611414565b9150611d0982611cc8565b602082019050919050565b60006020820190508181036000830152611d2d81611cf1565b9050919050565b7f4e487b7100000000000000000000000000000000000000000000000000000000600052601160045260246000fd5b6000611d6e8261110c565b9150611d798361110c565b9250828203905081811115611d9157611d90611d34565b5b9291505056fea2646970667358221220a0b1bdfdab60e65bfac45572e98bb1f05374ef8173dddd07cb9248a0d0155e1a64736f6c634300081c0033",
  "linkReferences": {},
  "deployedLinkReferences": {}
}